:020000040800F2
:100000006806002089010008130400083B0300086B
:100010001104000843020008410500080000000028
:10002000000000000000000000000000350400088F
:10003000450200080000000015040008ED04000857
:10004000A3010008A3010008A3010008A301000800
:10005000A3010008A3010008A3010008A3010008F0
:10006000A3010008A3010008A3010008A3010008E0
:10007000A3010008A3010008A3010008A3010008D0
:10008000A3010008A3010008A3010008A3010008C0
:10009000A3010008A3010008A3010008A3010008B0
:1000A000A3010008A3010008A3010008A3010008A0
:1000B000A3010008A3010008A3010008A301000890
:1000C000A3010008A3010008A3010008A301000880
:1000D000A3010008A3010008A3010008A301000870
:1000E000A3010008A3010008A301000800F002F822
:1000F00000F03AF80AA090E8000C82448344AAF188
:100100000107DA4501D100F02FF8AFF2090EBAE885
:100110000F0013F0010F18BFFB1A43F0010318473B
:100120004C0400006C040000103A24BF78C878C169
:10013000FAD8520724BF30C830C144BF04680C60ED
:10014000704700000023002400250026103A28BF35
:1001500078C1FBD8520728BF30C148BF0B60704739
:100160001FB51FBD10B510BD00F031F81146FFF7E7
:10017000F7FF00F0E7F900F04FF803B4FFF7F2FFE4
:1001800003BC00F057F800000948804709480047C1
:10019000FEE7FEE7FEE7FEE7FEE7FEE7FEE7FEE737
:1001A000FEE7FEE704480549054A064B7047000094
:1001B000F1040008ED000008680000206806002037
:1001C000680200206802002070477047704775463B
:1001D00000F02CF8AE4605006946534620F00700B3
:1001E000854618B020B5FFF7DDFFBDE820404FF091
:1001F00000064FF000074FF000084FF0000B21F011
:100200000701AC46ACE8C009ACE8C009ACE8C009DD
:10021000ACE8C0098D46704710B50446AFF30080C6
:100220002046BDE81040FFF7A8BF00000048704717
:100230000400002001491820ABBEFEE726000200A2
:100240007047FEE7704700B502464FF47A7302E04C
:10025000184600F004F8521E501CF9D100BD00EB06
:10026000C000C1004FF0E020416100218161052103
:1002700001610169C903FCD50421016170472DE9C1
:10028000F0410022CC7804F00F03E40601D58C780D
:1002900023430C784FF00F0714F0FF0F4FF0010CC1
:1002A0001CD005680CFA02F40E882640A64211D133
:1002B000960007FA06F825EA080503FA06F848EA60
:1002C0000505CE78282E02D0482E02D002E04461E7
:1002D00000E00461521C082AE4D305600A88FF2A62
:1002E0001ED94568002202F108060CFA06F40E88B1
:1002F0002640A64210D1960007FA06F825EA08051E
:1003000003FA06F848EA0505CE78282E00D14461A4
:10031000CE78482E00D10461521C082AE3D34560F0
:10032000BDE8F0810246002092680A4200D0012018
:1003300070474161704701617047FEE770B5002466
:10034000144D02212846FFF7EDFF60B91420FFF796
:100350007AFF02212846FFF7E5FF0028F9D0142094
:10036000FFF771FF01244FF4006631462846FFF77E
:10037000D9FF60B91420FFF766FF31462846FFF722
:10038000D1FF0028F9D01420FFF75DFF022420469A
:1003900070BD0000000C014008B50121082000F0EC
:1003A0003BF848208DF8030040F60200ADF800004D
:1003B00003208DF8020069460148FFF760FF08BD81
:1003C000000C014002210148FFF7B5BF00080140C1
:1003D00002210148FFF7ADBF0008014038B50121F7
:1003E000042000F019F810208DF803000620ADF865
:1003F000000003208DF80200044C69462046FFF7F8
:100400003EFF06212046FFF796FF38BD0008014059
:10041000FEE7704770470000054A002903D0916944
:100420000143916170479169814391617047000078
:1004300000100240704700F001B800000CB5002227
:10044000019200922748016841F4803101604FF425
:10045000A063016801F4003100910199491C0191E8
:10046000009911B901999942F3D10168890302D524
:100470000121009100E000920099012930D11A4930
:100480000A6842F010020A600A6822F003020A6059
:100490000A6842F002020A604168416041684160B6
:1004A000416841F480614160416821F47C11416000
:1004B000416841F4E8114160016841F080710160D8
:1004C00001688901FCD5416821F003014160416860
:1004D00041F0020141604168C1F381010229FAD172
:1004E0000CBD0000001002400020024070470000D8
:1004F00010B50F48016841F00101016041680D4AE3
:100500001140416001680C4A11400160016821F40A
:1005100080210160416821F4FE0141604FF41F0118
:100520008160FFF788FF05494FF00060086010BD4B
:10053000001002400000FFF8FFFFF6FE08ED00E0AB
:10054000FEE70000FFF74AFFFFF726FF064CFFF724
:10055000F5FE2070012801D1FFF73AFF207802282C
:10056000F5D1FFF72FFFF2E7000000208C0500080F
:100570000000002004000000280100089005000889
:100580000400002064060000440100080000000090
:04000005080000ED02
:00000001FF
